:020000040800F2
:10000000D8B6002045010008512A000859180008F8
:100010002D2200085D0A0008997100080000000008
:10002000000000000000000000000000FD6D00085E
:10003000E311000800000000B10900082144000895
:100040007F0100087F0100087F0100087F01000890
:100050007F0100087F0100087F0100087F01000880
:100060007F0100087F0100087F0100087F01000870
:100070007F0100087F0100087F0100087F01000860
:100080007F0100087F0100087F0100087F01000850
:100090007F0100087F0100087F0100087F01000840
:1000A0007F0100087F0100087F0100087F01000830
:1000B0007F0100087F010008C16E00087F01000871
:1000C0007F0100087F0100087F0100087F01000810
:1000D0007F010008796F00082D700008E1700008AA
:1000E000AD1400087F0100087F0100087F010008AF
:1000F0007F0100087F0100087F0100087F010008E0
:100100007F0100087F0100087F0100087F010008CF
:100110007F0100087F0100087F0100087F010008BF
:100120007F0100087F0100087F0100087F010008AF
:10013000DFF80CD000F0A6FB004800471D84000843
:10014000D8B600200E488047DFF83800016841F437
:1001500070010160BFF34F8FDFF82C00016821F0C0
:1001600040410160BFF36F8F08480047FEE7FEE79C
:10017000FEE7FEE7FEE7FEE7FEE7FEE7FEE7FEE757
:10018000716E000888ED00E034EF00E031010008F6
:1001900072B6704762B67047EFF3108072B6704760
:1001A00080F31088704730BF704720BF7047B0FAA7
:1001B00080F0704790FAA0F0B0FA80F0704790FAA3
:1001C000A0F070472DE9F05F0546002092469B465F
:1001D00088460646814640241BE02846414647465D
:1001E000224600F080FA53465A46C01A914110D375
:1001F00011461846224600F067FA2D1A67EB0108EF
:100200004F4622460120002100F05EFA17EB00095C
:100210004E41201EA4F10104DFDC484631462A4647
:100220004346BDE8F09F40EA01039B0703D009E085
:1002300008C9121F08C0042AFAD203E011F8013BD2
:1002400000F8013B521EF9D27047D2B201E000F82B
:10025000012B491EFBD270470022F6E710B513466A
:100260000A4604461946FFF7F0FF204610BD2DE967
:10027000FE4F804681EA0300C00F0C46009021F03B
:10028000004123F00045B8EB0200A94105D24046E9
:10029000214690461C460B46024623F00040104380
:1002A00047D0270DC7F30A00C3F30A510290401A42
:1002B000019040286BDAC3F3130040F4801B0098D0
:1002C000924620B10023D2EB030A63EB0B0B01989B
:1002D0005946C0F14002504600F0F6F906460D4678
:1002E00050465946019A00F00EFA10EB08006141A1
:1002F000002487EA115284EAE7731A4340D0009A37
:1003000062B3019A012A4FEA075215DC001B61EB28
:1003100002014FF0004202EA0752CDE90042001C00
:1003200041F5801132462B4600F045FA03B0BDE896
:10033000F08F40462146F9E7001B61EB0201001CEB
:1003400041F5801300185B412018A2F5001747EB18
:10035000030140EAD570B6196D4111E06D084FEA0E
:10036000360645EAC0754FEA0752001B61EB0201F1
:10037000001C41F5801149084FEA30000019514135
:1003800032462B4603B0BDE8F04F00F005BA0098A6
:10039000012240000023D0EB020263EBE0730098DF
:1003A00021464FEAE074B8EB000061EB0401E9E795
:1003B00083F000435BE781F0004158E72DE9FE4FF1
:1003C00081EA030404F0004421F0004100944FF05E
:1003D000000B23F0004350EA01045ED052EA03040C
:1003E0005BD0C3F30A54C1F30A552C44A4F2F3348E
:1003F0000194A0FB0254C1F3130141F48011C3F333
:10040000130343F4801301FB024400FB034E840AF0
:10041000970A44EA815447EA8357A4FB0768029588
:100420008D0A05FB07854FEA932C04FB0C54270526
:10043000029D4FEA065847EA1637B5EB08056EEB02
:10044000070C870E920E47EA811742EA8312A7FB38
:100450000201B6EB0B0164EB00042B0D43EA0C33F5
:100460005E1844EB1C50DA465146E7FB0201C5F327
:1004700013044FEA0B3343EA14534FEA0432019C4E
:1004800043EA0603A4F10C040294009CCDE900B4F5
:1004900000F091F903B0BDE8F08F00200146F9E7C4
:1004A0002DE9F04D81EA030404F0004B21F00045F2
:1004B00014464FF0000A23F0004150EA050220D014
:1004C00054EA01021DD0C5F30A570246C5F31303CF
:1004D000C1F31300C1F30A5640F4801543F48013AE
:1004E000A7EB0608101BD64608F2FD3873EB050093
:1004F00002D308F1010801E092185B41B8F1000F46
:1005000003DA00200146BDE8F08D00204FF4801191
:10051000064684460EE0171B73EB050705D3121B36
:1005200063EB050306434CEA010C49084FEA30002F
:1005300092185B4150EA0107EDD152EA030012D054
:1005400082EA040083EA0501084305D0101BAB4191
:1005500006D20122002306E000224FF0004302E011
:100560006FF0010253101AEB06004CEB085110EB30
:100570000A0041EB0B01BDE8F04D00F00DB90EB5DE
:10058000C10F80EAE0700844CA07002140F23343FB
:100590008DE80E000A460B4600F00DF903B000BDD1
:1005A00070B5C1F30A5201F000450024C1F31301F4
:1005B00040F2FF3341F480119A4201DA002070BD0D
:1005C00040F233439A42A2F2334203DC524200F03B
:1005D0008AF800E090402C43F1D0404270BD00F01A
:1005E000004230F000400AD0C10D01F56071C0F347
:1005F000160042EA0151C20840071143704700202B
:100600000146704730B5041E71F1000404DB4FF061
:100610000044404264EB0101141E73F1000405DB49
:100620001C464FF00043524263EB04038B4208BF69
:10063000824230BD30B5041E71F1000404DB4FF07E
:100640000044404264EB0101141E73F1000405DB19
:100650001C464FF00043524263EB0403994208BF2B
:10066000904230BD01F0004330B421F0004150EA27
:10067000010206D00A0DA2F56072C1F31301002A2F
:1006800002DC30BC00207047440F44EAC104C100C2
:10069000E01830BC00EBC25000F047B830B50B4654
:1006A000014600202022012409E021FA02F59D42A2
:1006B00005D303FA02F5491B04FA02F52844151E76
:1006C000A2F10102F1DC30BD202A04DB203A00FA5D
:1006D00002F1002070479140C2F1200320FA03F399
:1006E000194390407047202A04DB203A21FA02F097
:1006F0000021704721FA02F3D040C2F1200291405C
:10070000084319467047202A06DBCB17203A41FAE6
:1007100002F043EAE07306E041FA02F3D040C2F18E
:10072000200291400843194670470029A8BF70472E
:10073000401C490008BF20F00100704710B4B0FA17
:1007400080FC00FA0CF050EA010404BF10BC7047B2
:1007500049B1CCF1200421FA04F411FA0CF118BFCC
:10076000012121430843A3EB0C01CB1D4FEA00619B
:100770004FEA102042BF002010BC704700EBC3506E
:1007800010440029A4BF10BC7047401C490008BF9A
:1007900020F0010010BC704710B5141E73F1000466
:1007A00008DA401C41F1000192185B411A4301D163
:1007B00020F0010010BD2DE9F04D92469B4611B18D
:1007C000B1FA81F202E0B0FA80F220329046FFF7EF
:1007D0007BFF04460F4640EA0A0041EA0B015346FC
:1007E0005A46084313D0114653EA010019D0C8F104
:1007F00040025046FFF777FF05460E4650465946E1
:100800004246FFF761FF084305D0012004E020467F
:100810003946BDE8F08D0020054346EAE0762C43DA
:1008200037430A986305E40AA0EB08000022FD0A9A
:1008300044EA47540A3002D500200146E9E70105A1
:1008400010196941DDE9084500196941BDE8F04D1D
:10085000A2E7C1F30A52C1F3130140F2FF3341F49E
:1008600080119A4202DA00200146704740F2334379
:100870009A42A2F2334202DC5242FFF734BFFFF742
:1008800023BF0000064C074D06E0E06840F001037E
:1008900094E8070098471034AC42F6D3FFF74CFCBD
:1008A000E89100080892000870B58C1810F8015BF8
:1008B00015F0070301D110F8013B2A1106D110F8F9
:1008C000012B03E010F8016B01F8016B5B1EF9D1FD
:1008D0002B0705D40023521E0DD401F8013BFAE783
:1008E00010F8013BCB1A921C03E013F8015B01F8EE
:1008F000015B521EF9D5A142D8D3002070BD000083
:10090000EFF3098141B1F1EE101A40F8041D20ED1A
:10091000200A3B490A6810607047B0EC200A02C800
:10092000E1EE101A37490A681060704772B64EF649
:100930002250CEF2000040F2FF01C0F2000101702F
:1009400040F23820C2F20000016881F3088840F2CA
:10095000AE10C2F2000040F2AF11C2F200010A78FC
:10096000027040F23025C2F2000540F23421C2F29A
:1009700000010A682A60106880F30988EFF3148088
:1009800040F0020080F31488BFF36F8FBDE8F00FD2
:100990000FBCBDE8005006BC62B608471A484FF0CD
:1009A00080510160704718484FF0805101607047D6
:1009B00072B6EFF3098020E9F00F40F23025C2F261
:1009C00000052E683060744603F08AFB40F2AE10DA
:1009D000C2F2000040F2AF11C2F200010A780270C8
:1009E00040F23421C2F200010A682A6044F0F40E99
:1009F0001068B0E8F00F80F3098862B67047000015
:100A0000300200203402002004ED00E000EE100A65
:100A1000B8EE400A0549D1ED000A30EE600A0449FB
:100A2000D1ED000A20EE200A704700004C010020A2
:100A30005001002010B5002007F04CFE10BD000052
:100A400070B5FFF7F7FF044603480068B4FBF0F504
:100A5000284603F001FD70BDB88F000800BFFEE717
:100A600010B500F021F800F019F810BD10B5002401
:100A700000BF00BFFFF790FB044600BF00BF10217E
:100A8000054801F0D5FB00BF00BF2046FFF788FBFB
:100A900000BF00BF10BD0000F48A002010B5FFF7B2
:100AA000E5FF10BD00BFFEE710B500200249086059
:100AB00000F00AF810BD0000600100200149086044
:100AC000704700006001002010B5FFF7B3FF044637
:100AD0000848006840F08070064908600020064918
:100AE00048600846006840F0010008602046FFF7B3
:100AF000E5FF10BDFCED00E0001000E00149486892
:100B000070470000001000E070B52DED068B064622
:100B1000B0EE408AF0EE608A0D469FED280BB0EEF5
:100B2000409AF0EE609A00249FED260B274880ED56
:100B3000000B012414E0601E244901EBC00090ED7D
:100B4000001BB0EE410AF0EE610A53EC182B51EC99
:100B5000100BFFF733FC1D4A02EBC40203C2641CF6
:100B6000AC42E8DD00241FE0184800EBC40090ED23
:100B7000002BB0EE420AF0EE620A06EBC40090EDE4
:100B8000002BB0EE421AF0EE621A53EC102B51EC2F
:100B9000110BFFF713FC41EC1A0B53EC192BFFF769
:100BA00066FB41EC190B641CAC42DDDDB0EE490A7A
:100BB000F0EE690ABDEC068B70BD0000000000007D
:100BC00000000000000000000000F03F3074002032
:100BD00010B5022007F048FD40F2026007F026FE43
:100BE0002023032200213F4807F0AAFB40230322D1
:100BF00000213C4807F0A4FB40F2036007F016FE1A
:100C0000012303220021384807F09AFB0223032224
:100C10000021354807F094FB40F2046007F006FE1F
:100C2000102303220021314807F08AFB002007F03F
:100C300041F840F2096007F0F9FD2D4806F0C8FFC1
:100C4000012211022A4807F0B9F80122022128489E
:100C500007F0B4F80021264807F097F8002124484F
:100C600006F0AAFF05220121214806F082FF012299
:100C700011461F4806F0E6FF4FF4602201211C4890
:100C800006F0FFFF1A4807F023F80723052200218A
:100C9000174807F024F8072308220121144807F019
:100CA0001EF8072309220221114807F018F807232C
:100CB0000E2203210E4807F012F807230622042112
:100CC0000B4807F00CF80A4806F0B3FF084806F096
:100CD0003BFF074806F0A8FF0121054807F05FF831
:100CE00010BD000000080140000C01400010014050
:100CF0000024014010B540F2036007F097FD402347
:100D000003221021084807F01BFB4021064807F08A
:100D1000C1FA802303221021034807F011FB802130
:100D2000014807F0B7FA10BD000C014010B540F2C1
:100D3000026007F07BFD40F21D7007F077FD102385
:100D4000032200210A4807F0FBFA07F09DF807F09C
:100D500063F8002007F0B4F8002007F0C3F8002182
:100D6000084607F0D1F8002007F098F810BD000001
:100D70000008014000B587B04FF4A06007F056FDB1
:100D80000021164807F00CF900208DF81A001448CD
:100D9000029001208DF81900800203900520049034
:100DA0001048009000208DF818004FF480700190DA
:100DB0004FF4405005906A460021084807F028F992
:100DC0000021064807F0D3F80021044807F0B7F9DE
:100DD0000021024807F0B2F807B000BD0000024051
:100DE000288900204C24014010B540F2046007F02F
:100DF0001DFD4FF4005303221021074807F0A0FA0D
:100E00004FF40051044807F045FA202303224821FB
:100E1000014807F095FA10BD0010014010B540F2EE
:100E2000046007F003FD4FF48073032210210A4889
:100E300007F086FA4FF48071074807F02DFA4FF457
:100E4000007303221021044807F07AFA4FF400716E
:100E5000014807F01FFA10BD0010014010B540F224
:100E6000046007F0E3FC40F2026007F0DFFC4FF49F
:100E70008063032210211C4807F062FA4FF480615E
:100E8000194807F009FA012303221021164807F038
:100E900057FA0121144807F0FFF902230322102119
:100EA000124807F04DFA0221104807F0F3F9082321
:100EB000032210210C4807F043FA08210A4807F0E2
:100EC000E9F9012303221021084807F039FA01212A
:100ED000064807F0DFF94FF48073032248210348E6
:100EE00007F02EFA10BD000000100140000801407C
:100EF00010B54FF4407007F09FFB10BD10B540F2E5
:100F0000036007F093FC4FF480430322482102481A
:100F100007F016FA10BD0000000C014010B54FF4A8
:100F2000C06007F083FC0C21012007F0BDF901220D
:100F30000021100307F028F902221146282007F0AB
:100F400019FB4FF4805007F07BF910BD7FB50446C4
:100F50000D4640F2027007F069FC0F4807F022FDD1
:100F6000684607F0F2FDADF800500020ADF804002F
:100F70000294ADF806006946074807F087FD012195
:100F8000054807F0CFFD002203211E2007F0F2FAEA
:100F9000014807F075FD7FBD0008004010B504460C
:100FA00000221146252007F0E5FA40F2026007F022
:100FB0003DFC4FF40073032218211D4807F0C0F9CF
:100FC0004FF4806303220421194807F0B9F940F275
:100FD0000E6007F02BFC174807F014FE2146154859
:100FE00007F0BEFD0021134807F0BBFE00211148A9
:100FF00007F0C7FE00210F4807F0A3FE04210D48AB
:1010000007F0A7FE08210B4807F0B3FE094807F0D8
:1010100041FE40F20531074807F05DFE40F207311E
:10102000044807F058FE00200349087010BD000076
:1010300000080140003801405A01002010B5044664
:1010400000221146262007F095FA40F2026007F0D0
:10105000EDFB0423032218211C4807F071F9082333
:1010600003220421194807F06BF940F2117007F0D0
:10107000DDFB174807F0C6FD2146154807F070FD57
:101080000021134807F06DFE0021114807F079FE9A
:1010900000210F4807F055FE04210D4807F059FEC6
:1010A00008210B4807F065FE094807F0F3FD40F200
:1010B0000531074807F00FFE40F20731044807F0FA
:1010C0000AFE00200349087010BD0000000801401E
:1010D000004400405B01002010B504460022114688
:1010E000272007F047FA40F2036007F09FFB4FF418
:1010F0008063032218211D4807F022F94FF4006392
:1011000003220421194807F01BF940F2127007F07E
:101110008DFB174807F076FD2146154807F020FDA6
:101120000021134807F01DFE0021114807F029FE99
:1011300000210F4807F005FE04210D4807F009FEC5
:1011400008210B4807F015FE094807F0A3FD40F2FF
:101150000531074807F0BFFD40F20731044807F0AA
:10116000BAFD00200349087010BD0000000C0140CA
:10117000004800405C0100202DE9F04105460E4684
:1011800017461C462560A7606660A80007F0BCF9FA
:101190002061A80007F0B8F9E060BDE8F08130B543
:1011A0000346002016E0B3F900509C68645D0C54BF
:1011B0001C88641C24B21C80B3F90040B3F90450AD
:1011C000AC4201DB00241C80441C20B2DC88641E7D
:1011D00024B2DC80B3F90640002C01DD9042E2DB52
:1011E00030BD70479CB034E020211A4807F006F962
:1011F00090B11948007801280AD11BA9174802F0BC
:101200005DFF17A102A806F01DF802A807F01EFA5C
:1012100000201149087012E00F48007860B90020E2
:1012200014490860144800F093FC144800F090FC46
:101230001BA90A4802F046FC0120074908701BA8B8
:1012400000214FF42F730A46CDE90010084602F042
:10125000F5FFC9E70010014004000020F00D002058
:101260006D61696E2E74372E7478743D222D2D2297
:10127000FFFFFF0008000020C80D0020DC0D00204B
:101280002DED108B9EB0D8E000F0C8FA00EE100AE9
:10129000B8EE400AB0EE409A684800F0DFFAF0EE8F
:1012A000408A6748B0EE680A00F0D8FAF0EE408A4B
:1012B00064480068B0F5FA7F63DB0020614908608C
:1012C0000F2332224FF4FA715F4800F06BFA00EE00
:1012D000100AB8EEC00AB0EE408A18EE100AFFF706
:1012E0007EF941EC1B0B9FED590B53EC102BFFF7D4
:1012F00065F841EC1A0B53EC1A2B9FED560B51EC91
:10130000100BFFF7CDF841EC190BFFF7ABF908EE26
:10131000100ABDEEC80A10EE102A50A102A805F06E
:1013200091FF02A807F092F900205149088040F689
:10133000FF705049088000204F4908601CE0424877
:101340004D4A126830F912104948B0F9000000F017
:1013500014FA474908803C48474A126830F912108D
:101360004448B0F9000000F016FA424908804248AB
:101370000068401C404908603F480068B0F5FA7FAB
:10138000DDDB00F04BFA00B22F492E4A126821F83B
:1013900012003848B0F90000FFF7F1F8CDE900017C
:1013A0003348B0F90000FFF7EAF841EC1F0B9FED5E
:1013B000330B53EC102BFFF701F841EC1E0B9DEDA6
:1013C000000B53EC102BFEF7F3FF41EC1C0B00F06D
:1013D00025FA2849B1F90010451A2846FFF7CFF839
:1013E00041EC1D0B53EC1C2BFFF75AF841EC1B0B87
:1013F0009FED240B53EC102BFEF7E0FF41EC1A0B92
:101400009FED220B53EC102BFEF731FF41EC190B33
:10141000FFF7C6F8044622461EA10FA805F012FFEA
:101420000FA807F013F907480068401C0549086039
:101430001CAA08210A2002F0AFFE25E7C80D0020F3
:10144000DC0D00200C000020701B00207B14AE4738
:10145000E17A843F0000000000004E406D61696E3B
:101460002E74372E7478743D22256422FFFFFF000E
:1014700014000020160000201000002000000000D2
:101480000000F03F000000000000444000000000A9
:1014900000001440616464206D61696E2E73322E09
:1014A00069642C302C2564FFFFFF000010B52DED82
:1014B000048B4FF4805006F0C9FE002845D0244824
:1014C000007848B900F0A4F922490880084601884C
:1014D00021A005F0A7FE2AE000F09AF92249088031
:1014E0001C48008800EE100AB8EE400A1F4880ED44
:1014F000000A0988174A1288881AFFF740F841EC59
:10150000190B53EC192B9FED1A0B51EC100BFEF736
:10151000C7FF41EC180BFFF7A5F81749086000203A
:101520000B4908701048018814A005F07BFE08499B
:101530000978481C00EBD0714910A0EB4101044A26
:1015400011704FF4805006F07BFEBDEC048B10BD93
:10155000550100204A010020306D6D6867203D2054
:1015600025640D0A00000000480100204C01002005
:101570000000000000005940500100203130306D63
:101580006D6867203D2025640D0A000070B5034694
:10159000002016E00C5CB3F902609D68AC555C88D5
:1015A000641C24B25C80B3F90240B3F90450AC422D
:1015B00001DB00245C80441C20B2DC88641C24B263
:1015C000DC80B3F90640B3F90450AC4201DA904232
:1015D000E0DB70BD30B52DED108B83B00446B0EE6E
:1015E00040AAF0EE60AAB0EE41BAF0EE61BA0D4644
:1015F000B0EE428AF0EE628A9FED3E0BB0EE409A6A
:10160000F0EE609A53EC1B2B51EC1A0BFFF712F81B
:101610000BD2B0EE4ADAF0EE6ADAB0EE4BAAF0EE98
:101620006BAAB0EE4DBAF0EE6DBA53EC182B51EC3C
:101630001A0BFEF71CFE41EC190B4AE053EC182B79
:1016400051EC190BFEF7B4FE41EC1F0B2946B0EE2E
:101650004F0AF0EE6F0A2046FFF756FAB0EE40EA66
:10166000F0EE60EA2946B0EE490AF0EE690A20463B
:10167000FFF74AFAB0EE40CAF0EE60CA53EC182BFE
:1016800051EC190BFEF7F3FD41EC1F0B2946B0EEB0
:101690004F0AF0EE6F0A2046FFF736FA8DED000B89
:1016A00053EC1E2B51EC1C0BFEF7C4FF09D29DED31
:1016B000000B53EC102B51EC1C0BFEF7BBFF00D2C0
:1016C0000EE053EC182B51EC190BFEF7D0FD41EC5A
:1016D000190B53EC1B2B51EC190BFEF793FFADD9F3
:1016E00000BFB0EE490AF0EE690A03B0BDEC108B02
:1016F00030BD000000000000000000002DE9F043B4
:1017000095B005460F46502101A8FEF7A5FD4FF004
:101710000009002415E026460FE035F9140035F9DC
:101720001610884208D101A830F81600401C00B2FB
:1017300001A921F8140002E0761E002EEDDA00BFA8
:10174000641CBC42E7DB002409E001A830F9140066
:10175000484503DB01A830F91490A046641CBC4244
:10176000F3DB35F9180015B0BDE8F08302468A4274
:1017700001DD104670470846FCE702468A4201DD5B
:10178000104670470846FCE702468A4201DD0846DB
:1017900070471046FCE702468A4201DD0846704762
:1017A0001046FCE72DE9F04F8FB005460E469046F7
:1017B00099464FF0000A0024A34600273C216846C2
:1017C000FEF74AFD00BF06E035F914105046FFF75A
:1017D000D4FF8246641CB442F6DB00240EE035F9E7
:1017E0001400AAEB0801884207DDA4EB0B0000B24D
:1017F0002DF817007F1CA3464C44641CB442EEDB5A
:10180000791E6846FFF77AFF0FB0BDE8F08F000041
:101810000148408870470000288900200148C0889E
:101820007047000028890020014880887047000028
:10183000288900200148008870470000288900207E
:1018400001480088704700001C0000200148008803
:10185000704700001E00002000BFFEE7F0EE400AC7
:101860000268511E14E04A1E036903EB820292EDE6
:10187000000A03EB810282ED000A4A1EC36803EBF3
:10188000820292ED000A03EB810282ED000A491EFA
:101890000029E8DA0269C2ED000A9FED180AC26861
:1018A00082ED000A002122E0C26802EB810292ED83
:1018B000001A826802EB8102D2ED001AC26892ED32
:1018C000000A01EE610A82ED000A026902EB810260
:1018D00092ED001A426802EB8102D2ED001AC26852
:1018E00092ED000A01EE210A82ED000A491C02680D
:1018F0008A42D9DCC26892ED000A704700000000FD
:101900000EB553E0FFF79CFF40F24C4188420CDDDE
:1019100027480088401C264908800846008805F0B2
:101920006FFA00202349087037E0FFF789FFB0F510
:101930002F7F0CDA1E480088401E1D49088008468B
:10194000008805F05DFA00201A49087025E0194862
:101950000078401C174908700846007828281CDBCE
:1019600000200870012014490870144800780128EC
:101970000CD1134800F0ECF8124800F0E9F801200F
:101980001149087002A9114802F09CF80020104982
:10199000087002A90F4802F091FB02A8002102235F
:1019A0000A46CDE90010084602F048FCAAE700000C
:1019B0005400002057000020500000204F0000205D
:1019C000581F00206C1F002051000020C02B002059
:1019D0004E0000200027002010B54021014806F0ED
:1019E0005BFC10BD000C014010B54021014806F021
:1019F00051FC10BD000C014010B5FFF7BBF9FFF71B
:101A0000E7F810BD70B598B0382237490AA8FEF73C
:101A10000AFCFFF7E9F9354B354A36493648006884
:101A2000FFF7AAFB354B364A364937480068FFF7BF
:101A3000A3FB00244FE0C4EBC4000AA901EB800023
:101A400040690A21B0FBF1F509A80721002205929F
:101A5000CDE906210890C4EBC4000AA901EB80007F
:101A6000008BC4EBC4010AAA02EB81014969C4EBF3
:101A7000C4020AAB03EB82021269CDE90125CDE96C
:101A80000310C4EBC4000AA901EB8000007BC4EB87
:101A9000C4030AAE06EB830300905A68C4EBC40388
:101AA00006EB83039968C4EBC40356F823000023B4
:101AB00001F064FEBDF8240060B1C4EBC4000AAAC2
:101AC00002EB8000BDF82420816810A005F0AAFB7D
:101AD00000BFFEE7641C022CADD309A9124802F036
:101AE000EDFA18B070BD00005C8E0008C80D002033
:101AF0000C8E0008008E0008FC8D0008DC0D002014
:101B0000D88D0008B48D0008B08D00084661696C5E
:101B100020746F2063726561746520257320282509
:101B200064290D0A00000000F00D002010B500F03F
:101B30003FF94FF4E13000F0B9FA4FF4E13000F032
:101B4000BDFA4FF4E13000F0C1FAFFF755FF10BDC8
:101B500000210EE09FED090A026902EB810282ED8D
:101B6000000A9FED060AC26802EB810282ED000ABC
:101B7000491C02688A42EDDC70470000000000004A
:101B800070B592B01C222E490BA8FEF74CFBFFF754
:101B900045F900244FE0C4EBC4000BA901EB800021
:101BA00040690A21B0FBF1F50AA80721002205923D
:101BB000CDE906210890C4EBC4000BA901EB80001D
:101BC000008BC4EBC4010BAA02EB81014969C4EB91
:101BD000C4020BAB03EB82021269CDE90125CDE90A
:101BE0000310C4EBC4000BA901EB8000007BC4EB25
:101BF000C4030BAE06EB830300905A68C4EBC40326
:101C000006EB83039968C4EBC40356F82300002352
:101C100001F0B4FDBDF8280060B1C4EBC4000BAA0C
:101C200002EB8000BDF82820816806A005F0FAFAD2
:101C300000BFFEE7641C002CADD012B070BD0000E8
:101C4000948D00084661696C20746F206372656131
:101C5000746520257320282564290D0A00000000E2
:101C600070B52DED048B98B0382241490AA8FEF7D3
:101C7000DAFA00F099F8FFF751F9FFF73FF93D481C
:101C8000008800EE100AB8EE400A3B4880ED000ADA
:101C90003A490988374A1288881AFEF770FC41ECE5
:101CA000190B53EC192B9FED360B51EC100BFEF773
:101CB000F7FB41EC180BFEF7D5FC33490860002414
:101CC0004FE0C4EBC4000AA901EB800040690A217F
:101CD000B0FBF1F509A8072100220592CDE9062104
:101CE0000890C4EBC4000AA901EB8000008BC4EB90
:101CF000C4010AAA02EB81014969C4EBC4020AAB20
:101D000003EB82021269CDE90125CDE90310C4EB92
:101D1000C4000AA901EB8000007BC4EBC4030AAE37
:101D200006EB830300905A68C4EBC40306EB8303FD
:101D30009968C4EBC40356F82300002301F01EFD8C
:101D4000BDF8240060B1C4EBC4000AAA02EB800015
:101D5000BDF8242081680DA005F064FA00BFFEE7FD
:101D6000641C022CADD318B0BDEC048B70BD000018
:101D7000048F00084A0100204C0100204801002087
:101D80000000000000005940500100204661696CCD
:101D900020746F2063726561746520257320282587
:101DA00064290D0A0000000010B5FFF757F810BDB8
:101DB00010B5FFF79DF810BD30B50B460024048028
:101DC00044808280C4808360002104E00024856810
:101DD0006C544C1C21B29142F8DB30BD70B5A6B0FA
:101DE00070223B490AA8FEF71EFA00F091F8394B21
:101DF000394A3A493A480068FFF7BEF9394B364A42
:101E0000364937480068FFF7B7F900244FE0C4EBC4
:101E1000C4000AA901EB800040690A21B0FBF1F57A
:101E200009A8072100220592CDE906210890C4EBFC
:101E3000C4000AA901EB8000008BC4EBC4010AAA0C
:101E400002EB81014969C4EBC4020AAB03EB8202D5
:101E50001269CDE90125CDE90310C4EBC4000AA93C
:101E600001EB8000007BC4EBC4030AAE06EB8303E6
:101E700000905A68C4EBC40306EB83039968C4EB73
:101E8000C40356F82300002301F078FCBDF82400B9
:101E900060B1C4EBC4000AAA02EB8000BDF82420A4
:101EA000816811A005F0BEF900BFFEE7641C042C98
:101EB000ADD309A9134802F001F909A9124802F0AB
:101EC000FDF809A9114802F0F9F826B070BD00002C
:101ED000948E0008581F00203C8E00081C8E0008BD
:101EE000188E00086C1F00204661696C20746F20FA
:101EF00063726561746520257320282564290D0AA5
:101F0000000000004022002000270020C02B0020FD
:101F100010B5FEF7EFFEFEF709FF3B2140F2E73078
:101F2000FFF714F810BD10B5FFF72AFEFFF76AFDA2
:101F3000FFF754FFFFF794FE00F002F810BD000019
:101F400070B592B01C223D490BA8FEF76CF90AAAA5
:101F50003BA13D4800F0BCFEBDF8280030B1BDF803
:101F600028103AA005F05EF900BFFEE70AAB4FF675
:101F7000FF723DA13E4801F091F8BDF8280030B154
:101F8000BDF828103BA005F04DF900BFFEE7002486
:101F90004FE0C4EBC4000BA901EB800040690A21AB
:101FA000B0FBF1F50AA8072100220592CDE9062130
:101FB0000890C4EBC4000BA901EB8000008BC4EBBC
:101FC000C4010BAA02EB81014969C4EBC4020BAB4B
:101FD00003EB82021269CDE90125CDE90310C4EBC0
:101FE000C4000BA901EB8000007BC4EBC4030BAE63
:101FF00006EB830300905A68C4EBC40306EB83032B
:102000009968C4EBC40356F82300002301F0B6FB23
:10201000BDF8280060B1C4EBC4000BAA02EB80003D
:10202000BDF8282081681AA005F0FCF800BFFEE783
:10203000641C002CADD012B070BD00003C8F0008B5
:102040006D75746578000000188800204661696C21
:1020500020746F206372656174206D7574657820DB
:10206000282564290D0A0000B4F2D3A10000000065
:10207000E88700204661696C20746F206372656197
:1020800074204F535120282564290D0A00000000B8
:102090004661696C20746F206372656174652025E8
:1020A0007320282564290D0A0000000010B504469D
:1020B00000F014F82046FEF771FF10BD10B504467D
:1020C00000F02CF82046FEF7B9FF10BD10B504460D
:1020D00000F044F82046FEF7FFFF10BD10B50024C5
:1020E00006E000200949085509490855601C04B25A
:1020F000642CF6DB642205490648FFF75DFE642286
:1021000003490548FFF758FE10BD00006088002015
:10211000C4880020488800205488002010B500247E
:1021200006E000200949085509490855601C04B219
:10213000642CF6DB642205490648FFF73DFE642265
:1021400003490548FFF738FE10BD00004C89002008
:10215000B0890020348900204089002010B5002477
:1021600006E000200949085509490855601C04B2D9
:10217000642CF6DB642205490648FFF71DFE642245
:1021800003490548FFF718FE10BD00002C8A002007
:10219000908A0020148A0020208A00200EB525E0B5
:1021A0004FF48071124806F031F9C0F10100C4B259
:1021B00022464FF480710E4806F070F84FF400711B
:1021C0000B4806F023F9C0F10100C4B222464FF4D7
:1021D0000071074806F062F802A800214FF4FA7374
:1021E0000A46CDE90010084602F028F8D8E70000BA
:1021F0000010014010B5012000F002F810BD0000F1
:1022000070B50446002500BF00BFFDF7C5FF0546B9
:1022100000BF00BF0448046000BF00BF2846FDF7B0
:10222000BFFF00BF00BF70BD6401002000BFFEE71C
:1022300030B505460C4622460021284600F05EF8DF
:1022400030BD00003EB500200C4908600C4C02A8CF
:1022500001214FF440632246CDE9001009490AA04C
:1022600000F016F8BDF8080042F21071884203D061
:1022700000BFFEF717FC00BF3EBD00006801002054
:10228000048B002004970020486561700000000066
:102290002DE9F84F05460E4617461C46DDE90A892A
:1022A0004FF0000A00BF00BFFDF776FF824600BF77
:1022B00000BF43463A4631462846009400F00EF8E7
:1022C00000BF00BF5046FDF76BFF00BF00BF42F2EA
:1022D0001070A9F80000BDE8F88F000030B5039C2D
:1022E0000A60651E15444D608A60034D2D68CD60FF
:1022F0000B61014D296030BD680100202DE9F041DE
:1023000005460B4694460027002402E03F021F4387
:10231000641C042CFAD3604605F00306294646B136
:10232000344603E001F8013B401E641C08B1042C54
:10233000F8D30A4601E080C2001F0428FBD21146F0
:1023400002E001F8013B401E0028FAD1BDE8F0810F
:102350002DED0C8BE8B0FFE1FFF75AFA0546FEF7CA
:1023600055FBB0EE408ABDEEC80A10EE102AFBA164
:102370004EA804F067FF4EA806F068F9FD48007803
:1023800048BBFD48007890B9FC480068B0F90000EF
:1023900000EE100AB8EEC00AB4EEC80AF1EE10FA68
:1023A00019D803F0F5FE0120F249087013E0F34854
:1023B0000068F149097830F9110000EE100AB8EE12
:1023C000C00AB4EEC80AF1EE10FA04DB04F0F6FE1F
:1023D0000120E8490870E7480078012804D1E8485E
:1023E0000068401CE6490860E54800683C2808D1C0
:1023F00003F0C4FE0020E349088040F6FF70E24984
:102400000880DF4800683C2819DBDD480068C828E0
:1024100015DAFFF709FA05B22946DB48B0F90000E2
:10242000FFF7B2F9D8490880FFF7FEF905B229464F
:10243000D448B0F90000FFF799F9D2490880D04894
:102440000068FA287BDBCC48007801282ADBCD49DC
:10245000B1F90010CC4AB2F90020881AFEF78FF8C3
:1024600041EC1A0B9FEDC90B53EC102BFEF718F83B
:10247000C14A1278521EC74B03EBC20203C218EEC8
:10248000100AFEF7ACF841EC1A0B9FEDC00B53ECB1
:10249000102BFEF705F8B84A1278521EBE4B03EB1C
:1024A000C20203C20020B3490870B549086003F0B6
:1024B0005BFE04F08BFEB04800780A287DD104F062
:1024C00075FE05200A23B54AB2490090B24803F0D0
:1024D00053FFB14890ED142BB0EE421AF0EE621AA1
:1024E00090ED022BB0EE420AF0EE620A9FEDAC2BAB
:1024F0000521AA48FFF76EF8AB4880ED000B0521D7
:1025000090ED000BA548FEF7FFFAB0EE409AF0EE12
:10251000609A002415E0A54800EBC40090ED001B74
:10252000B0EE410AF0EE610A53EC102B9E4890ED9C
:10253000001B51EC110BFEF77DF801D203E002E124
:10254000641C062CE7DB00BF994800EB041090EDFB
:10255000001BB0EE410AF0EE610A53EC102B51EC77
:10256000190BFDF72BFF41EC1B0B914800EB0410FE
:1025700090ED021BB0EE410AF0EE610A53EC102B15
:1025800051EC190BFDF71AFF41EC1C0B9FED890B69
:1025900053EC102B844890ED000B51EC100BFDF721
:1025A00066FE41EC1D0BFEF75DF808EE900A7E48D2
:1025B00090ED000B51EC100B00E092E0FEF752F8AA
:1025C0000AEE100AF2EE042A9FED7C2AB0EE4B1AB6
:1025D000F0EE6B1A0521F0EE680AB0EE4A0A6F4879
:1025E00003F0E6FD764880ED000B9FED720B53EC97
:1025F000102B6D4890ED000B51EC100BFDF7D8FE41
:1026000041EC1D0BFEF72EF808EE900A664890ED9F
:10261000000B51EC100BFEF725F80AEE100AF2EE53
:10262000042A9FED662AB0EE4C1AF0EE6C1A0521D2
:10263000F0EE680AB0EE4A0A584803F0B9FD614866
:1026400080ED000B9FED510B53EC102B5C4890ED8F
:10265000000B51EC100BFDF7B1FE41EC1A0BFDF72E
:102660009FFF05462A4658A135A804F0EBFD35A882
:1026700005F0ECFF9FED450B53EC102B4A4890ED15
:10268000000B51EC100BFDF799FE41EC1A0BFDF716
:1026900087FF05462A4652A11CA804F0D3FD1CA8BA
:1026A00005F0D4FF9FED390B53EC102B454890ED0E
:1026B000000B51EC100BFDF781FE41EC1A0BFDF7FE
:1026C0006FFF05462A464CA103A804F0BBFD03A8F2
:1026D00005F0BCFF00204E49087067A94D4801F085
:1026E00021F925480078401C0B2190FBF1F201FBF9
:1026F00012002149087008460078012823D1214999
:10270000B1F90010204AB2F90020881AFDF737FF0E
:1027100041EC1D0B9FED1D0B53EC102BFDF7C0FE84
:1027200041EC1A0B9FED3C0B53EC102BFDF782FF95
:1027300009D23B481149086000200F49087004F095
:102740003DFD03F02DFD67A800210A230A46CDE9CF
:102750000010084601F072FDFEE500006D61696E33
:102760002E7431322E7478743D22256422FFFFFFCF
:1027700000000000680000206000002044010020EC
:1027800064000020560100205801002000000000D5
:102790000000244080440020D84400205044002001
:1027A0009A9999999999A93F0001002070000020F9
:1027B000A000002000000000000010400AD7233CC9
:1027C00008010020100100206D61696E2E74313304
:1027D0002E7478743D22256422FFFFFF0000000064
:1027E0006D61696E2E7431342E7478743D222564C7
:1027F00022FFFFFF000000006D61696E2E7431350D
:102800002E7478743D22256422FFFFFF0000000033
:1028100054010020B04E00200000000000005E4087
:102820002E0100200EB529E0FEF7F2FF0446FEF768
:10283000EDF8DFED130AB4EEE00AF1EE10FA02DA79
:1028400003F0CEFF80B90F480078012806D10020A0
:102850000C49087002A90C4801F064F804F09EFCD1
:1028600004F0B4FC03F094FC02A800214FF4FA73C6
:102870000A46CDE90010084601F0E0FCD4E700006C
:102880000080954354010020B04E0020F0B06EACA3
:1028900091E030206E900121204604F057F8464820
:1028A0000078002851D14FF48041444805F0A6FD3E
:1028B00018B19DF8B801232874D1414841490860F6
:1028C00041A155A804F0BEFC55A805F0BFFE44A1E7
:1028D0003CA804F0B7FC3CA805F0B8FE46A123A82C
:1028E00004F0B0FC23A805F0B1FE49A10AA804F049
:1028F000A9FC0AA805F0AAFE00204B4908704B4924
:1029000008604B49087004F049FC04F057FC03F0E0
:1029100047FC0120284908706FA807210022059272
:10292000CDE90621089010464FF480711922414BE1
:10293000CDE90132CDE903100B2000233E4A3FA12F
:102940000090424800F01AFF2CE09DF8B8012A28B8
:1029500028D100201849087004F028FC04F036FC47
:1029600003F016FC18A155A804F06CFC55A805F05E
:102970006DFE1BA13CA804F065FC3CA805F066FEBA
:102980001DA123A804F05EFC23A805F05FFE20A192
:102990000AA804F057FC0AA805F058FE6FA92B48B6
:1029A00000F0C0FF6FA8002132230A46CDE90010D5
:1029B000084601F043FC6CE754010020000C014084
:1029C00018010020440100206D61696E2E743132BF
:1029D0002E7478743D222D2D22FFFFFF0000000091
:1029E0006D61696E2E7431332E7478743D222D2DF5
:1029F00022FFFFFF000000006D61696E2E7431340C
:102A00002E7478743D222D2D22FFFFFF0000000060
:102A10006D61696E2E7431352E7478743D222D2DC2
:102A200022FFFFFF00000000600000206400002083
:102A300068000020704F0020512300084E4942508A
:102A40005F537461725461736B000000B04E0020DC
:102A50007047704710B50348006810B1014800681E
:102A6000804710BD8001002070B5044600F0AEF82C
:102A700000204149087041490870414908704149A6
:102A8000086041490860414908704149087041495E
:102A9000087041490860414908604149086041485F
:102AA000006858B14048056845B13E48066803E0F3
:102AB000761E002028602D1D002EF9D100203B49F4
:102AC00008603B4908603B4908603B4908603B4956
:102AD00008603B4908603B4908603B49087002F0C8
:102AE00061F902F013FA204601F0A2FD208800B13E
:102AF00070BD204601F002FE208800B1F8E72046B4
:102B000001F008FE208800B1F2E7204601F090FFB6
:102B1000208800B1ECE7204602F08CF9208800B153
:102B2000E6E7204602F0B2FA208800B1E0E720464E
:102B300002F058FD208800B1DAE7204601F0A6FD3A
:102B4000208800B1D4E7204603F08CF9208800B13A
:102B5000CEE7204602F01AFC208800B1C8E72046E4
:102B600003F0E4F9208800B1C2E701F08DFCFFF723
:102B700070FF00BFBCE70000940100209501002019
:102B8000C80100203002002034020020AE010020E5
:102B9000AF010020B0010020BC010020C0010020D6
:102BA000C4010020888F0008848F00087401002071
:102BB000780100207C010020800100208401002099
:102BC000880100208C010020F601002006480068E2
:102BD0000649096800EB810005490860084600685D
:102BE00020F0070008607047848F0008888F000875
:102BF0003802002010B500242D480078012800D0AC
:102C000010BD00BFFDF7C8FA044600BF2948007890
:102C100028B900BF2046FDF7C3FA00BFF0E72548FA
:102C20000078401E2349087008460078002805DD1A
:102C300000BF2046FDF7B4FA00BFE1E71E48007868
:102C4000002805DD00BF2046FDF7AAFA00BFD7E740
:102C500002F094F8194908700846007800EB40002B
:102C6000174951F8200017490860084600681649BE
:102C70000968884205D100BF2046FDF791FA00BFE0
:102C8000BEE710480068D0F88C00401C0D49096868
:102C9000C1F88C000D480068401C0C490860FDF725
:102CA00082FE00BF2046FDF77BFA00BF00BFA7E70A
:102CB0009501002094010020C8010020AF010020F0
:102CC00064A500203402002030020020EC01002026
:102CD0002DE9F04104460E461546002724B945F675
:102CE000C3502880BDE8F08100BF00BFFDF754FA53
:102CF000074600BF00BF10482060666000202062C9
:102D0000606284F82800E06204F1080001F041FFED
:102D1000204601F01DFE09480088401C0749088034
:102D200000BF00BF3846FDF73BFA00BF00BF0020E0
:102D3000288000BFD6E700004D555458AC01002054
:102D40002DE9F04788B00546894617461C46109E77
:102D50004FF0000A2DB945F6C350308008B0BDE8E9
:102D6000F0871FB1B7F5004F02D100E000BF03E0CC
:102D700045F625603080F1E700BF62492868884247
:102D800003D045F6C4503080E8E70CB10020206045
:102D900000BF00BFFDF700FA824600BF00BF95F8F4
:102DA0002800B8B9584800686862012085F82800F2
:102DB0000CB1E86A206029465348006801F0E0FD44
:102DC00000BF00BF5046FDF7EBF900BF00BF002079
:102DD0003080C3E74C49686A0968884212D195F887
:102DE0002800401C85F828000CB1E86A206000BF6C
:102DF00000BF5046FDF7D4F900BF00BF45F2827016
:102E00003080ABE707F4004050B100BF00BF504630
:102E1000FDF7C6F900BF00BF46F2B01030809DE755
:102E20003A48007800280ADD00BF00BF5046FDF791
:102E3000B7F900BF00BF46F6635030808EE7D5F883
:102E4000248098F837003049096891F83710884293
:102E500006DD2D48006890F83710404602F012FB5E
:102E60004B4604222946684601F0EEFD00BF00BF34
:102E70005046FDF795F900BF00BF00F073FA00BFA0
:102E800000BFFDF789F9824600BF00BF1E480068F9
:102E900090F8350030B101280CD002281AD0032850
:102EA00021D110E01CB118480068806C206000201F
:102EB00030801CE01CB114480068806C206046F231
:102EC000A910308013E00CB10020206047F2D92017
:102ED00030800CE01CB10C480068806C206045F626
:102EE000C250308003E046F62E60308000BF00BF45
:102EF00000BF00BF5046FDF753F900BF00BF00BF41
:102F00002CE700004D55545830020020C801002025
:102F10002DE9F84F0446894615464FF0000B24B9B9
:102F200045F6C3502880BDE8F88FB9F1000F03D0F3
:102F3000B9F5004F02D100E000BF03E045F625607F
:102F40002880F0E700BF52492068884203D045F648
:102F5000C4502880E7E700BF00BFFDF71DF9834696
:102F600000BF00BF4B49606A096888420AD000BFB1
:102F700000BF5846FDF714F900BF00BF45F281704D
:102F80002880D0E7FDF7BAFD80462834C4F80480D5
:102F90002078401E207014F8280900280ADD00BFA0
:102FA00000BF5846FDF7FCF800BF00BF45F2837034
:102FB0002880B8E721463748006801F02BFD04F16E
:102FC000080ABAF8080068B90020606284F828008E
:102FD00000BF00BF5846FDF7E3F800BF00BF002068
:102FE0002880A0E72B48006890F837002949096835
:102FF00091F83810884228D02648006801F0F4FC87
:1030000006462448006890F83810B14204DA214896
:10301000006890F8380000E0304606461D48006819
:1030200090F83700B04210DA1A48006801F0D4FF77
:103030001848006880F83760304601F0BFFE154838
:10304000006801F0ABFF14480670DAF800008768EA
:103050006762012084F828002146384601F090FC80
:1030600000231A4639462046CDF8008001F004FEC0
:1030700000BF00BF5846FDF793F800BF00BF09F43A
:10308000004008B900F06EF90020288000BF4AE730
:103090004D55545830020020AE0100202DE9F0417A
:1030A00004460F4616461D464FF0000824B945F663
:1030B000C3502880BDE8F0811EB946F294502880A4
:1030C000F8E700BF00BFFDF767F8804600BF00BF0C
:1030D0000F4820606760314604F1200001F0AEFB2C
:1030E00004F1080001F055FD204601F08BFE09486F
:1030F0000088401C0749088000BF00BF4046FDF71C
:103100004FF800BF00BF0020288000BFD2E70000BA
:1031100051554555B80100202DE9F04F89B00746BB
:10312000894690461E46DDE912544FF0000B37B930
:1031300045F6C3502080002009B0BDE8F08F26B9C5
:1031400046F2D52020800020F6E7B8F1000F03D02A
:10315000B8F5004F02D100E000BF04E045F625605D
:1031600020800020E8E700BF56493868884204D034
:1031700045F6C45020800020DEE70DB10020286015
:1031800000BF00BFFDF708F8834600BF00BF23461D
:103190002A46314607F1200001F01CFB82462088B8
:1031A00040B900BF00BF5846FCF7FAFF00BF00BFA0
:1031B0005046C1E708F4004058B100BF00BF584670
:1031C000FCF7EEFF00BF00BF46F2B01020800020E9
:1031D000B2E73D48007800280BDD00BF00BF58462D
:1031E000FCF7DEFF00BF00BF46F6635020800020E2
:1031F000A2E74B460522394601A801F025FC00BF95
:1032000000BF5846FCF7CCFF00BF00BF00F0AAF893
:1032100000BF00BFFCF7C0FF834600BF00BF2B48C4
:10322000006890F8350030B1012815D002282AD066
:10323000032835D11DE025480068D0F858A0234860
:103240000068B0F85C0030801DB120480068806CD8
:103250002860002020802BE04FF0000A0020308002
:103260001DB11A480068806C286046F2A9102080C1
:103270001EE04FF0000A0020308005B1286047F2C0
:10328000D920208014E04FF0000A002030801DB1CA
:103290000E480068806C286045F6C250208007E028
:1032A0004FF0000A0020308046F62E60208000BFDC
:1032B00000BF00BF00BF5846FCF772FF00BF00BF51
:1032C000504639E751554555C801002030020020CD
:1032D0002DE9FC470546884691461E460A9C25B9BD
:1032E00045F6C3502080BDE8FC87B6F5004F19D0E5
:1032F00009DC9EB1102E12D0B6F5007F10D0B6F5C5
:10330000047F13D10DE0A6F50040103858B1B0F598
:10331000F87F09D0B0F5007F08D106E000BF00BFFC
:1033200000BF00BF00BF00BF00BF03E045F625603F
:103330002080D8E700BF0A492868884203D045F6B4
:10334000C4502080CFE7FDF7D9FB074633464A46F5
:1033500041462846CDE9007401F078FD00BFC2E780
:103360005155455510B5002420480078002800DD4F
:1033700010BD1F480078002800DDF9E700BFFCF70A
:103380000BFF044600BF01F0F9FC1A49087008461B
:10339000007800EB4000184951F8200017490860F8
:1033A0000846006816490968884205D100BF2046D2
:1033B000FCF7F6FE00BFDBE710480068D0F88C0091
:1033C000401C0E490968C1F88C000E480068401C7A
:1033D0000C490860FDF7E2FA00BF2046FCF7E0FE6A
:1033E00000BFBFF36F8F00BFC2E700009401002051
:1033F000C8010020AF01002064A500203402002095
:1034000030020020EC01002070B50446002514486D
:103410000078012803D045F68960208070BD1148EE
:103420000078FA2803DB45F209202080F6E700BF88
:1034300000BFFCF7B1FE054600BF00BF0948007899
:10344000401C0849087001F0F5FD00BF00BF284688
:10345000FCF7A6FE00BF00BF0020208000BFDDE714
:1034600095010020C801002070B5044600251C48C5
:103470000078012803D045F68960208070BD194886
:10348000007818B946F664502080F7E700BF00BF07
:10349000FCF782FE054600BF00BF12480078401EC0
:1034A000104908700846007800280ADD00BF00BFF8
:1034B0002846FCF775FE00BF00BF46F6635020802B
:1034C000DCE701F0C5FD00BF00BF2846FCF768FE41
:1034D00000BF00BFFFF746FF0020208000BFCDE700
:1034E00095010020C801002010B50446124800785C
:1034F000E8B901F043FC114908700846007810490A
:1035000008700E48007800EB40000E4951F820008A
:103510000D490860084600680C490860012006490A
:103520000870FDF703FA43F69920208002E045F683
:103530008A60208010BD000095010020AF010020AE
:10354000AE01002064A500203402002030020020DB
:103550002DE9F04107464FF0000800BF00BFFCF71F
:103560001BFE804600BF00BF00203B4908803B494E
:1035700008603B4908603B4908603B4908603B499B
:10358000088100BF00BF4046FCF70AFE00BF00BF35
:1035900000BF00BFFCF700FE804600BF00BF3448FC
:1035A000046800BF00BF4046FCF7FAFD00BF00BF43
:1035B00021E000BF00BFFCF7EFFD804600BF00BF69
:1035C00000207434E06320602063A061A082E08268
:1035D0006062A062FDF792FA2062743C04F160061A
:1035E0000020B081D4F8B84000BF00BF4046FCF7CF
:1035F000D7FD00BF00BF002CDBD100BF00BFFCF730
:10360000CBFD804600BF00BF1A48056800BF00BF61
:103610004046FCF7C5FD00BF00BF12E000BF00BF81
:10362000FCF7BAFD804600BF00BF05F12006002070
:10363000B081AD6900BF00BF4046FCF7B1FD00BFDF
:1036400000BF002DEAD102F003FB02F015FD0020BF
:103650003880BDE8F0810000D6010020E80100209C
:10366000FC01002020020020C001002058A50020FD
:10367000F0010020B4010020F8B504460026694698
:10368000324800F01BFDBDF8000018B1BDF8000085
:103690002080F8BD6A460021022000F07DFDBDF8C3
:1036A000000018B1BDF800002080F2E700BF00BFA5
:1036B000FCF772FD064600BF00BF002024490860E9
:1036C00000BF00BF3046FCF76BFD00BF00BF002508
:1036D0002048006820490968884205D91D480068CB
:1036E0001D490968B0FBF1F525B91A4800680A219F
:1036F000B0FBF1F56A460021284600F04DFD694611
:10370000124800F0DFF9BDF8000018B1BDF8000064
:103710002080BEE700BF00BFFCF73EFD064600BFAD
:1037200000BF00200D490860094800680C49086086
:1037300001200C49087000BF00BF3046FCF730FD87
:1037400000BF00BF0020208000BFA2E714AA002015
:10375000D8010020B88F0008A08F0008E8010020E1
:10376000DC010020E401002010B50348006810B11E
:1037700001480068804710BD840100202DE9FF4FFB
:1037800087B004469046DDE91BA5DDE91496179F36
:10379000002003902CB947F2AD1028800BB0BDE893
:1037A000F08FB8F1000F03D147F24F102880F5E7F2
:1037B0001EB946F62F602880F0E75048006887421F
:1037C00003D246F630602880E8E71698B84203D363
:1037D00046F631602880E1E7B9F1400F03D346F2A5
:1037E00073202880DAE7B9F13F0F06D144488442BC
:1037F00003D046F273202880D0E7204601F002FF74
:10380000002028800AF0010090B10AF0020078B18F
:1038100005960020069008E00021059801600598B3
:10382000001D05900698401C06900698B842F3D3F8
:10383000169806EB80000490CDE9007A32464046A7
:10384000049B0A9900F0D8FA0590C4F828800A98D9
:10385000E0620898206284F8379084F838900598E0
:1038600020600498A0601A98606066622764A4F8DB
:1038700044A04FF0000B08E0002104F1780040F86C
:103880002B100BF1010000F0FF0BBBF1000FF3D088
:1038900004F16000189900F0D1FF204600F036F8DE
:1038A00000BF00BFFCF778FC039000BF00BF94F896
:1038B000370001F083FA204601F070FB204601F04A
:1038C00057FE10480088401C0E4908800E480078BA
:1038D000012807D000BF00BF0398FCF761FC00BFC0
:1038E00000BF5BE700BF00BF0398FCF759FC00BFB7
:1038F00000BFFFF737FD00BF50E70000B48F00089E
:1039000098A40020F40100209501002010B5044681
:103910000348006818B1204601490968884710BD6E
:10392000740100202DE9F04104460E464FF00008D6
:103930005B48844204D147F24C103080BDE8F081EE
:103940007CB900BF00BFFCF727FC804600BF00BF6A
:103950005448046800BF00BF4046FCF721FC00BF8C
:1039600000BF00BF00BFFCF717FC804600BF00BFD0
:1039700094F83600082860D2DFE800F004090E1041
:10398000080A0F11204601F027FB61E060E000BF4C
:10399000204602F031F95BE000BF00BF00BF94F8A1
:1039A000340008283BD2DFE800F0040705080E09C0
:1039B0000A0600BF00BF33E000BF00BF00BF2046C3
:1039C00001F01FF92CE0206BC068456A15F8377FBD
:1039D000204601F016F928786978373D884212D0E0
:1039E00095F8370094F8371088420CD1284600F03B
:1039F000FBFF074695F83800B84202DA95F8380020
:103A000000E038460746002084F8340095F8370077
:103A1000B84203D03946284601F034FD00E000BF2B
:103A200000BF94F83600032803D094F83600072826
:103A300002D1204602F0E0F80AE000BF00BF404695
:103A4000FCF7AEFB00BF00BF46F62D60308075E787
:103A500000BFE06B10B1204600F096FF04F160005B
:103A600000F096FE204600F021F8204601F098FD77
:103A70000D480088401E0C490880204601F0C2FD18
:103A8000FF2084F8360000BF00BF4046FCF788FBEB
:103A900000BF00BF00203080FFF764FC00BF4DE78F
:103AA00098A4002030020020F401002010B5044644
:103AB0000348006818B1204601490968884710BDCD
:103AC0007801002070B504460D46002600BF00BFF7
:103AD000FCF762FB064600BF00BF1CB10D48006842
:103AE00084420AD100BF00BF3046FCF759FB00BF3B
:103AF00000BF47F25710288070BD00BF00BF30469E
:103B0000FCF74EFB00BF00BF2946204601F0D8FD60
:103B100000BFF1E73002002010B5044603480068FA
:103B200018B1204601490968884710BD7C01002072
:103B30002DE9F04780460E4614461D464FF0000919
:103B40001EB1B6F5004F02D100E000BF05E045F61A
:103B5000256028800020BDE8F08700BF0CB1002060
:103B6000206000BF00BFFCF717FB814600BF00BF0D
:103B70005F480068C06CA8B35D480068C06C401E18
:103B80005B490968C8645A480068C76C1CB158484A
:103B90000068806C2060FCF7B1FF55490968896CAA
:103BA000401A53490968C1F8A00051480068D0F88C
:103BB000A4004F490968D1F8A010884207D24C48A8
:103BC0000068D0F8A0004A490968C1F8A40000BF05
:103BD00000BF4846FCF7E4FA00BF00BF0020288081
:103BE0003846B8E7FFE706F4004058B100BF00BF11
:103BF0004846FCF7D5FA00BF00BF46F2B010288057
:103C00000020A8E73B48007800280BDD00BF00BF7C
:103C10004846FCF7C5FA00BF00BF46F6635028804F
:103C2000002098E7434607220021084600F00CFFD9
:103C300000BF00BF4846FCF7B3FA00BF00BFFFF764
:103C400091FB00BF00BFFCF7A7FA814600BF00BF91
:103C50002748006890F8350020B1012826D00328B5
:103C600034D12CE0FCB122480068806C2060FCF765
:103C700045FF1F490968896C401A1D490968C1F848
:103C8000A0001B480068D0F8A40019490968D1F8C1
:103C9000A010884207D216480068D0F8A000144946
:103CA0000968C1F8A4000020288013E01CB1104866
:103CB0000068806C206046F2A91028800AE00CB1F0
:103CC0000020206047F2D920288003E046F62E60CD
:103CD000288000BF00BF06480068C76C00BF00BF57
:103CE0004846FCF75DFA00BF00BF384633E70000E6
:103CF00030020020C80100202DE9F04106460D46A3
:103D000014461DB1B5F5004F02D100E000BF05E03B
:103D100045F6256020800020BDE8F08100BFFCF75B
:103D2000EDFE8046234642462946304601F054FDCA
:103D300007463846F0E700002DE9F04704460E46F6
:103D400017461D464FF0000A26B946F2D5202880B6
:103D5000BDE8F0871FB946F2D5202880F8E700BFFC
:103D600000BFFCF719FA824600BF00BF0CB921481A
:103D70000468206868B900BF00BF5046FCF710FA1D
:103D800000BF00BF00203060386047F2521028802A
:103D9000DEE794F8440000F0010068B900BF00BFFE
:103DA0005046FCF7FDF900BF00BF002030603860CE
:103DB00047F254102880CBE700BF00BF5046FCF705
:103DC000EFF900BF00BF4FF00008D4F8249003E0E3
:103DD00009F1040908F10108D9F800000028F7D01A
:103DE000C6F80080206CA0EB080038600020288016
:103DF00000BFADE730020020F0B50446DDE905560E
:103E000002EB850020F007004FF0807C071F38464A
:103E1000C7F800C0071F38463C60DFF834C2071FF0
:103E20003846C7F800C04FF0123C071F3846C7F8A5
:103E300000C04FF0033C071F3846C7F800C04FF0E2
:103E4000023C071F3846C7F800C0071F38463B60D2
:103E5000071F384639604FF0113C071F3846C7F836
:103E600000C04FF0103C071F3846C7F800C04FF0A5
:103E7000093C071F3846C7F800C04FF0083C071F31
:103E80003846C7F800C04FF0073C071F3846C7F850
:103E900000C04FF0063C071F3846C7F800C04FF07F
:103EA000053C071F3846C7F800C04FF0043C071F09
:103EB0003846C7F800C006F00407002F7ED04FF048
:103EC000007C071F3846C7F800C0DFF888C1071F0D
:103ED0003846C7F800C0DFF880C1071F3846C7F86A
:103EE00000C0DFF878C1071F3846C7F800C0DFF808
:103EF00070C1071F3846C7F800C0DFF868C1071F48
:103F00003846C7F800C0DFF860C1071F3846C7F859
:103F100000C0DFF858C1071F3846C7F800C0DFF8F7
:103F200050C1071F3846C7F800C0DFF848C1071F57
:103F30003846C7F800C0DFF840C1071F3846C7F849
:103F400000C0DFF838C1071F3846C7F800C0DFF8E7
:103F500030C1071F3846C7F800C0DFF828C1071F67
:103F60003846C7F800C0DFF820C1071F3846C7F839
:103F700000C0DFF818C1071F3846C7F800C04FF06F
:103F8000834C071F3846C7F800C0DFF804C1071F7D
:103F90003846C7F800C0DFF8FCC0071F3846C7F82E
:103FA00000C0DFF8F4C0071F3846C7F800C0DFF8CC
:103FB000ECC0071F3846C7F800C000E047E0DFF854
:103FC000E0C0071F3846C7F800C0DFF8D8C0071F99
:103FD0003846C7F800C0DFF8D0C0071F3846C7F81A
:103FE00000C04FF0824C071F3846C7F800C0DFF80A
:103FF000BCC0071F3846C7F800C0DFF8B4C0071FB1
:104000003846C7F800C0DFF8ACC0071F3846C7F80D
:1040100000C04FF0814C071F3846C7F800C0DFF8DA
:1040200098C0071F3846C7F800C04FF0804C071FE4
:104030003846C7F800C04FF07E5C071F3846C7F807
:1040400000C04FF0000C071F3846C7F800C0F0BD95
:10405000C15700080000F8410000F0410000E841AD
:104060000000E0410000D8410000D0410000C841FC
:104070000000C0410000B8410000B0410000A8416C
:104080000000A041000098410000904100008841DC
:1040900000007041000060410000504100004041BC
:1040A0000000304100002041000010410000E040CD
:1040B0000000C0400000A0400000404070B5054630
:1040C0000C460648854203D147F25B10208070BD44
:1040D0002146284601F062FC00BFF8E798A40020C2
:1040E00010B52948006890F8440000F0040020B1A1
:1040F000254909680868FCF703FC2448006890F823
:10410000440000F0040020B1204909680868FCF769
:1041100004FC1F48006810B11D4800688047FCF788
:10412000EDFC04461848006818490968884215D013
:1041300015480068D0F89400201A13490968C1F89E
:10414000900011480068D0F898000F490968D1F82C
:10415000901008440C490968C1F898000B480068A1
:10416000C0F8944008480068D0F8B00009490968D0
:10417000884205D20748006803490968C1F8B000C1
:1041800000200449086010BD3002002034020020E5
:1041900088010020C40100202DE9F04105460E46AB
:1041A0001446002723480078002804DD46F66350B3
:1041B0002080BDE8F08136B1022E05D0042E0AD051
:1041C000082E09D101E000BF00BF1DB947F27E20D3
:1041D0002080EEE704E003E045F625602080E8E774
:1041E00000BF00BF00BFFBF7D7FF074600BF00BFFF
:1041F0002346324629461048006801F09FFC20887B
:1042000038B100BF00BF3846FBF7CAFF00BF00BF90
:10421000CFE70948006800F0DFFE00BF00BF384666
:10422000FBF7BEFF00BF00BFFFF79CF80020208017
:1042300000BFBEE7C8010020300200202DE9FF5F6B
:1042400005460E4617469846DDE90EA4002000906C
:104250005A480078002804DD46F663502080BDE807
:10426000FF9F0AF00E0BBBF1000F09D0BBF1020F4C
:1042700007D0BBF1040F10D0BBF1080F0ED101E045
:1042800000BF00BFB8F1000F06D12FB926B91DB984
:1042900047F27E202080E2E704E003E045F6256057
:1042A0002080DCE700BF2AF01E0008B1012000E0FA
:1042B000002003900398012803D145F62560208053
:1042C000CDE70AF01000102802D100BF012000E065
:1042D000002002900298012818D0B8F57A7F03D305
:1042E00047F27B202080BAE73B2F03DD47F27A209C
:1042F0002080B4E73B2E03DD47F279202080AEE733
:10430000632D12DD47F278202080A8E742F20F707B
:10431000864203DD47F279202080A0E7B5F57A7F59
:1043200003DB47F27820208099E72548D0F80090F9
:104330004FF4FA70B0FBF9F0404400FB09F04FF481
:104340007A71B0FBF1F14FF461606843C6EB06127D
:1043500000EB8200384400FB09100190019838B34B
:1043600000BF00BFFBF718FF009000BF00BF23464F
:104370005A4614480199006801F0E0FB208838B1E2
:1043800000BF00BF0098FBF70BFF00BF00BF66E750
:104390000C48006800F020FE00BF00BF0098FBF74B
:1043A000FFFE00BF00BFFEF7DDFF0020208002E01F
:1043B00047F27E20208000BF51E70000C8010020A6
:1043C000B88F00083002002008B500F01FF86A46D8
:1043D00000210A48FFF790FC09480068401E084980
:1043E00008600846006838B90648006808606A46F0
:1043F00000210548FFF780FC08BD000024A900202B
:104400002C0200202802002014AA002010B5034826
:10441000006810B101480068804710BD8C01002081
:1044200010B5002400BF00BFFBF7B6FE044600BF76
:1044300000BF08480078401C0649087000BF00BF54
:104440002046FBF7ADFE00BF00BFFFF7BDFFFEF744
:10445000D1FB10BD9401002001464A1E4FF0E0231D
:104460005A61084A106820F07F4000BF10601A4669
:10447000126942F005021A611A46126942F00202FC
:104480001A61704720ED00E0244A2549254A264A52
:104490002649274A2748284A284A294A294A2A4891
:1044A0002A482B4A2B482C4A2C482D4A2D482E4866
:1044B0002E482F482F4A304A304A3148314A324A32
:1044C0003248334833483448344835483548364A0A
:1044D000364A374A374A384838483948394A3A4AD2
:1044E0003A4A3B483B483C483C493D483D4A3E4AA5
:1044F0003E4A3F4A3F4A404A404A4148414A424A6E
:1045000042484348434A444A4448454A454A464843
:10451000464800BF00BF00BF70470000EC8F000896
:1045200054910008ED8F0008EE8F0008F08F00080E
:10453000F48F0008F88F0008F58F0008209000081D
:10454000219000082290000824900008269000087E
:104550002A9000082C9000084C9000084E9000080B
:10456000509000085290000854900008569000089F
:104570005890000888900008899000088A900008E8
:104580008C9000088E9000088F9000089090000892
:104590009290000894900008969000089890000867
:1045A0009A9000089C900008CC900008CD900008DC
:1045B000CE900008CF900008D0900008D29000085C
:1045C000D4900008FC900008FD900008FE900008C0
:1045D000FF90000800910008029100080491000873
:1045E00008910008099100080A9100080B91000841
:1045F0000C9100080D9100080E9100080F91000821
:1046000010910008129100081391000814910008FD
:104610001691000818910008199100081C910008D3
:104620004C9100084D9100084E91000850910008EF
:104630000021034A1160034A118001807047000085
:10464000980100209C010020002419E000BF00BF59
:10465000FBF7A2FD044600BF00BF0A480068401CEB
:104660000849086008480068401C0749086000BF06
:1046700000BF2046FBF794FD00BF00BFFEF7EAF93C
:10468000E4E7000090010020D801002010B58AB0B6
:10469000044600200E4908600B2000210591CDE959
:1046A0000704069108460B4909680B4A12680B4B30
:1046B0001B68CDE90132CDE903103F200023084AF1
:1046C00008A100900C48FFF759F80AB010BD00008F
:1046D00090010020608F00085C8F0008588F000850
:1046E0004946000875432F4F532D494949204964D5
:1046F0006C65205461736B0098A400200021034A6C
:104700001160034A1180018070470000A001002061
:10471000A401002070B501461A4D2D681DB945F25F
:104720001E750D8070BD184D2D881DB945F21D7583
:104730000D80F7E7134D28682A681032124D2D8836
:104740006D1EACB2002308E00260002545600581C3
:10475000C560103010325D1CABB2A342F4DB002503
:10476000056045600581C560064D2D68074E3560C2
:10477000054D2D88B5800025F58035810D8000BF61
:10478000D0E70000988F0008908F000858A50020FF
:1047900010B5014648894B89002B17DD0A680C4B80
:1047A0001B6813600A4C4B6823602346DB884C89E6
:1047B0001B1B074CE38023469B884C892344044CF5
:1047C000A38000234B818B810B604B6010BD0000E8
:1047D00058A50020F0B504460D46608940B9002078
:1047E000288002B1106046F2925018800020F0BD7F
:1047F00061684E68088928800AB1C8681060086836
:104800006060606818B900202060608102E0608903
:10481000401E608108480068086007480160808881
:10482000401C054FB8803846C088401EF8800020E4
:1048300018803046DBE7000058A5002001810022E7
:104840004281828102604260704700002DE9F041A0
:104850000D46DDE90674B0F80AC0B0F80880C4451A
:1048600005DB46F2935CA4F800C0BDE8F081DFF8F8
:10487000DCC0BCF804C0BCF1000F04D145F21D7CC3
:10488000A4F800C0F1E7DFF8C4C0DCF80010DFF8DE
:10489000BC80D1F800C0C8F800C0C446BCF804C051
:1048A000ACF1010CA8F804C0C446BCF806C00CF179
:1048B000010CA8F806C0C446BCF808C0B8F80680C9
:1048C000C44507DADFF884C0BCF806C0DFF87C8096
:1048D000A8F808C0B0F80AC0BCF1000F0AD1016006
:1048E00041604FF0010CA0F80AC04FF0000CC1F875
:1048F00000C017E003F0100CBCF1000F07D10668F0
:10490000316001604FF0000CC1F800C004E0D0F845
:1049100004C0C1F800C04160B0F80AC00CF1010C3D
:10492000A0F80AC0B0F80CC0B0F80A80C44503DA99
:10493000B0F80AC0A0F80CC04D600A81CF604FF0FB
:10494000000CA4F800C000BF8FE7000058A50020AD
:1049500009A1C161002141610849096811B900211B
:10496000816105E005490968816104490968486178
:10497000024908607047000020000000A8010020E4
:10498000C26B0A62C16370472DE9F8430546EC6BC0
:1049900026E0D4F82090FCF7B1F80646E6622146FE
:1049A000284600F037F804F10808B8F8080020B9E4
:1049B000002084F82800606211E0D8F800008768C1
:1049C0006562012084F8280021463846FFF7D8FFA9
:1049D00000231A4639462046009600F04DF94C4611
:1049E000002CD6D1BDE8F88330B504463F2004F151
:1049F0003C010BE00D68AB682BB19D6895F8372042
:104A0000824200DA10460D6805F120010D68002D84
:104A1000F0D130BD024602F13C0002E0036803F130
:104A2000200003688B42F9D103681B6A036070475A
:104A30000021034A1160034A118001807047000081
:104A4000A8010020AC0100202DE9F04105460C46EC
:104A500016461F461548006880F834600020134948
:104A6000096881F8350039461048006800F0F4FC08
:104A70006CB104F10808EC60012229460B4800687B
:104A800000F016F82946404600F088F807E00020BC
:104A900006490968A1F84600044909680863034803
:104AA0000168204600F018F8BDE8F08130020020CF
:104AB00010B5A0F84620016300230AE000244C60F2
:104AC0000C600C614C610C83CC61886020315C1CF3
:104AD000A3B29342F2DB10BD30B548B14568C1F8CE
:104AE000BC5000F10804226893681D6AC56113E098
:104AF00091F83450022D02D0072D08D103E007A50C
:104B0000C1F8BC5007E007A5C1F8BC5003E008A5F8
:104B1000C1F8BC5000BF00BF30BD00005461736BD2
:104B2000205100005461736B2053656D000000003C
:104B30002000000030B507A5C1F8BC5000F1080402
:104B400022681AB193681D6AC56101E001A5C561BB
:104B500030BD0000200000002DE9F0410446256B27
:104B6000B4F8467011E0D5F80C8008F108063089D9
:104B7000012807D92946304600F05DF8294630461D
:104B800000F00CF82035781E87B2002FEBD1BDE87D
:104B9000F08100210160416001817047F0B58E68AD
:104BA00096F8375007893FB90127078100274F60E2
:104BB0000F600160416023E007897F1C0781026864
:104BC00006E0946894F83770AF4200DD02E0526866
:104BD000002AF6D100BF32B900274F6043680B604E
:104BE000596041600CE017682FB9116000270F6011
:104BF0004A60016004E013680B604A60596011600C
:104C0000F0BD2DE9F0410446256BB4F846600AE09A
:104C1000D5F80C8008F108072946384600F00BF853
:104C20002035701E86B2002EF2DC0020A4F846006B
:104C30002063BDE8F08110B50489012C03D1002464
:104C40000460446011E00C6824B94A6800241460D0
:104C500002600AE04C6824B90B6800245C60436081
:104C600003E00B684A685A6013600489641E04817B
:104C700000244C600C6010BD2DE9F84306460C463C
:104C800017469846089D94F8360008285BD2DFE85E
:104C900000F0040508090607323300BF00BF00BF5B
:104CA00052E000BF94F83400032807D143463A4647
:104CB00021463046009500F04AF803E0A765A4F8C5
:104CC0005C80A56436B12046FFF79BFF2146304645
:104CD000FFF730FF94F83600032802D1204600F099
:104CE0008BFF204600F024F900203434A07060705F
:104CF00004F8340928E000BF94F83400032807D1F1
:104D000043463A4621463046009500F020F803E03D
:104D1000A765A4F85C80A56436B12046FFF771FF53
:104D200021463046FFF706FF94F83600072802D1E7
:104D3000204600F061FF04203434A0700020607031
:104D400004F8340900E000BF00BFBDE8F883F0B507
:104D50000446059E086BB1F846500AE0C768A742B2
:104D600004D1046142610383C66104E020306F1EF8
:104D7000BDB2002DF2DC00BFF0BD000070B5002513
:104D8000074C03E005F12000C5B2241D206800286F
:104D9000F8D02068FBF70BFA2844C5B2284670BD4E
:104DA0006C010020002004E00021034A42F820109A
:104DB000401C0228F8D370476C01002030B542092E
:104DC00000F01F030121C3F11F04A140034C54F85C
:104DD00022400C43014D45F8224030BD6C010020BB
:104DE00030B5420900F01F030121C3F11F04A140A7
:104DF000034C54F822408C43014D45F8224030BD0D
:104E00006C01002009A1C1610021416108490968C4
:104E100011B90021816105E00549096881610449F2
:104E200009684861024908607047000020000000DE
:104E3000B40100200021034A1160034A118001805F
:104E400070470000B4010020B80100202DE9F04FA8
:104E500085B007468A4693461C460020029000BF54
:104E600000BFFBF799F9029000BF00BF07F10806E9
:104E70003089E0B904F0100010B94FF0000801E0EB
:104E80004FF01008DDE90E0143465A46CDE9000116
:104E9000514607F12000FFF7D9FC00BF00BF029880
:104EA000FBF77EF900BF00BF05B0BDE8F08F04F44A
:104EB000007008B1358900E00125D6F8009011E0B6
:104EC000D9F808000390D9F8040004900E985B46C6
:104ED0005246009038460399FFF7CEFEDDF8109059
:104EE000681E85B2002DEBD100BF00BF0298FBF712
:104EF00057F900BF00BF04F4004008B9FEF732FACA
:104F000000210F98018000BFCEE7000000210AE0D9
:104F100001EB4102054B03EB82000022028102609B
:104F200042604A1CD1B24029F2D3704764A50020E8
:104F300010B5044694F83700FFF740FF94F83700A7
:104F400005490978884203D1204600F027F802E09D
:104F5000204600F003F810BDAE01002010B590F817
:104F6000373003EB43030C4C04EB83010B893BB953
:104F700001230B810023C36003610860486009E0DE
:104F80000B895B1C0B810B68C360002303610A68FB
:104F90001061086010BD000064A5002010B590F8F5
:104FA000373003EB43030B4C04EB83010B893BB914
:104FB00001230B810023C36003610860486008E09F
:104FC0000B895B1C0B810023C3604A680261D060BF
:104FD000486010BD64A500202DE9F041054695F814
:104FE000370000EB4000124901EB80042F69EE68A6
:104FF00087B946B9002020812060606095F83700AD
:10500000FFF7EEFE0EE02089401E20810020306177
:10501000266007E02089401E2081FE600EB967608F
:1050200000E0376100202861E860BDE8F081000001
:1050300064A5002010B504480078012803D1FBF7CF
:105040005DFD0249086010BDC8010020BC010020C0
:1050500010B50A48007880B9FBF750FD0849096887
:10506000441A08480068A04201D206480460064875
:105070000068A04201D20448046010BDC8010020AD
:10508000BC010020C0010020C40100200021034A0F
:105090001160034A1180018070470000CC0100209C
:1050A000D001002086B00020009006E0A8490968E1
:1050B000480001AA0021FFF76FF8A64800780128F0
:1050C000F4D101A8FEF744FA0027A3480068A049DC
:1050D0000968884205D9A04800689D490968B0FB65
:1050E000F1F727B99C4800680A21B0FBF1F72EE1DF
:1050F000FBF704FD804600BF00BFFBF74DF80090B2
:1051000000BF00BF9548006895490860002093499A
:10511000086000BF00BF0098FBF742F800BF00BF67
:10512000904800688E490968884248D98D480068CF
:105130008D49884205D242F21070039001200290FE
:1051400023E0884800688949884205D24FF47A7084
:1051500003900A20029018E082480068844988423F
:1051600003D26420039002900FE07E4800688149DA
:10517000884205D20A2003904FF47A70029004E02E
:105180000120039042F21070029076480168029864
:10519000B1FBF0FA7249039809684843B0FBFAF092
:1051A00042F21071081A744908807448008809880E
:1051B000884208DA704800887049088003E042F2AB
:1051C00010706D490880FEF7CFFA002500BF00BFC0
:1051D000FAF7E2FF009000BF00BF6948046800BF13
:1051E00000BF0098FAF7DCFF00BF00BF26E000BF59
:1051F00000BFFAF7D1FF009000BF00BF54F8980F2E
:105200006060002044F8980900BF00BF0098FAF7DA
:10521000C7FF00BF00BFD4F89C00054400BF00BF1B
:10522000FAF7BAFF009000BF00BFD4F8B84000BF43
:1052300000BF0098FAF7B4FF00BF00BF002CD6D122
:1052400045B34948854205D242F2107005904FF0AF
:10525000010B1BE04548854205D24FF47A7005905A
:105260004FF00A0B12E04248854203D264200590B9
:1052700083460BE03F48854204D20A2005904FF454
:105280007A7B03E00120059042F2107BB5FBFBF036
:10529000049003E0002005900120049000BF00BFAF
:1052A000FAF77AFF009000BF00BF3548046800BFDE
:1052B00000BF0098FAF774FF00BF00BF2BE0D4F8DE
:1052C0009C00059948430499B0FBF1F086B242F284
:1052D0001070864200D90646A4F88860B4F88A00A7
:1052E000B04201DAA4F88A6001AB04F1A802111DF2
:1052F0002046FEF721FD00BF00BFFAF74DFF0090EA
:1053000000BF00BFD4F8B84000BF00BF0098FAF754
:1053100047FF00BF00BF002CD1D11A4800780128F8
:1053200005D100201749087001A8FEF711F9FBF715
:10533000E5FBA0EB080914480068484502D2124872
:10534000C0F8009001AA00213846FEF725FFCFE6FD
:10535000A08F0008E4010020B88F0008D8010020C9
:10536000E0010020DC010020801A060000093D0059
:10537000005A62020084D717D4010020D601002011
:10538000F0010020D2010020E801002010B58AB011
:10539000044600201F4908601F4908601F49086033
:1053A0001F4908701F4908701F48006820B946F659
:1053B0002B6020800AB010BD1C4800681C49096899
:1053C000884203D246F62C602080F3E71948007823
:1053D0003F2803D346F62A602080EBE70320002114
:1053E0000591CDE907040691084610490968124A5B
:1053F00012680D4B1B68CDE90132CDE903100D4851
:10540000007800230D4A0EA100901248FEF7B6F96D
:1054100000BFCFE7D8010020E0010020DC01002020
:10542000E4010020D2010020A48F0008AC8F000806
:10543000B48F00089C8F0008A88F0008A5500008B2
:1054400075432F4F532D494949205374617420549B
:1054500061736B0064A8002070B504460D4645B129
:105460002A462146064800F025FB032084F8360032
:1054700002E0022084F836002046FFF7ADFD70BD43
:10548000080200202DE9F04104460D4600BF002629
:1054900094F8377094F8360008285FD2DFE800F0FF
:1054A00004191E1F1A1B20212046FFF795FD84F8C2
:1054B000375094F83700FFF781FC2C48006884428D
:1054C00003D12046FFF74AFD02E02046FFF766FDC4
:1054D00046E000BF00BF84F8375041E000BF00BF86
:1054E00000BF84F8375094F83400082831D2DFE840
:1054F00000F0300431050B06073200BF00BF00BFCB
:105500002046FFF729FB27E02046FFF725FB206B0D
:10551000C068466AAF4205DD96F83700A84217DC3E
:10552000002615E096F83700B84211D13046FFF753
:105530005BFA054696F83800A84202DA96F8380079
:1055400000E02846054696F83700A84200D100261C
:1055500002E000BF00BF00BF00BF01E0BDE8F08176
:1055600000BF3446002C92D100BFF7E73002002084
:105570000021C0F8B4100949096819B90021C0F820
:10558000B81007E005490968C0F8B8100349096870
:10559000C1F8B4000149086070470000F001002024
:1055A000D0F8B420D0F8B8104AB90D4B196011B139
:1055B0000023C1F8B4300023C0F8B8300FE029B997
:1055C0000023C2F8B830C0F8B43008E0C2F8B81010
:1055D000C1F8B4200023C0F8B830C0F8B430704728
:1055E000F00100200021044A1160044A1180044A9D
:1055F0001160018070470000F0010020F4010020DC
:10560000EC01002070B5044600202060A0606060BE
:10561000E06020616061A061E06126A0206200205E
:105620006062A062E062A064A065A4F85C00002152
:1056300004F16000FFF702F9002020676067E0676F
:10564000A4F88400C4F88000002506E0002104F1DD
:10565000780040F82510681CC5B2002DF6D0002057
:105660003434A061E0662067E06084F85200A067EF
:1056700060672082E0612062A4F85400A4F856001C
:10568000A065E065FBF73AFA0646266600206066EC
:10569000E06720706070A0704020E07020710020F2
:1056A000A060C4F88000C4F8840004A0C4F8880096
:1056B000343C70BD3F5461736B000000200000005B
:1056C00070B504460D46002600BF00BFFAF764FD22
:1056D000064600BF00BF0020288094F83600082846
:1056E0005ED2DFE800F0040506071227394B00BF41
:1056F00000BF00BF00BF00BF3046FAF751FD00BF3A
:1057000000BF47F25310288055E014F8860F401E62
:10571000207014F8860928B9002084F83600204645
:10572000FFF706FC00BF00BF3046FAF739FD00BFA7
:1057300000BF40E014F8860F401E207014F8860960
:1057400010B9012084F8360000BF00BF3046FAF7D8
:1057500027FD00BF00BF2EE014F8860F401E20700A
:1057600014F8860910B9022084F8360000BF00BF83
:105770003046FAF715FD00BF00BF1CE014F8860F95
:10578000401E207014F8860910B9032084F83600F2
:1057900000BF00BF3046FAF703FD00BF00BF0AE0BC
:1057A00000BF00BF3046FAF7FBFC00BF00BF46F663
:1057B0002D60288070BD00BFFDF7D4FD00BFF9E764
:1057C00008B504480068FEF7A7F969460020FEF70F
:1057D000A9F808BD300200202DE9F84304468846A8
:1057E00017461D464FF0000900BF00BFFAF7D4FC72
:1057F000814600BF00BF0CB967480468A764002059
:10580000288094F83600082876D2DFE800F00405F6
:1058100050510607525300BF00BF00BF04200128AB
:1058200004D0022813D0042833D122E0E06CFF28F2
:105830000CD100BF00BF4846FAF7B2FC00BF00BF62
:1058400046F6C55028800020BDE8F88322E04FF6D8
:10585000FF71E06C88420BD100BF00BF4846FAF7E9
:105860009FFC00BF00BF46F6C55028800020EBE734
:1058700010E0E06C401C58B900BF00BF4846FAF782
:105880008FFC00BF00BF46F6C55028800020DBE734
:1058900000E000BF00BFE06C401CE064E66C00BFAD
:1058A00000BF4846FAF77CFC00BF00BF71E000BFB4
:1058B00000BF00BF94F83400072815D100231A4612
:1058C000214618460097FFF7D7F9E66C00BF00BFE6
:1058D0004846FAF765FC00BF00BF08F40040002806
:1058E0004AD1FDF73FFD47E00420012805D00228FA
:1058F00013D0042833D122E03FE0E06CFF280BD125
:1059000000BF00BF4846FAF74BFC00BF00BF46F699
:10591000C5502880002097E722E04FF6FF71E06C29
:1059200088420BD100BF00BF4846FAF739FC00BFE0
:1059300000BF46F6C5502880002085E710E0E06CE7
:10594000401C58B900BF00BF4846FAF729FC00BF09
:1059500000BF46F6C5502880002075E700E000BF74
:1059600000BFE06C401CE064E66C00BF00BF48462E
:10597000FAF716FC00BF00BF0BE000BF00BF4846AF
:10598000FAF70EFC00BF00BF46F62D602880002607
:1059900000BF00BF304657E73002002070B5044614
:1059A0000D46002600BF00BFFAF7F6FB064600BF13
:1059B00000BF0CB93D4804683C48006884420ED1E1
:1059C0003B48007800280ADD00BF00BF3046FAF7E8
:1059D000E7FB00BF00BF46F66350288070BD002083
:1059E000288094F83600082850D2DFE800F004152B
:1059F00023313F404142042084F83600012084F8DE
:105A000086002046FFF7E8FA00BF00BF3046FAF7ED
:105A1000C7FB00BF00BF44E0052084F8360001202A
:105A200084F8860000BF00BF3046FAF7B9FB00BF1C
:105A300000BF36E0062084F83600012084F8860096
:105A400000BF00BF3046FAF7ABFB00BF00BF28E045
:105A5000072084F83600012084F8860000BF00BFCC
:105A60003046FAF79DFB00BF00BF1AE000BF00BF41
:105A700000BF94F88600401C84F8860000BF00BF79
:105A80003046FAF78DFB00BF00BF0AE000BF00BF41
:105A90003046FAF785FB00BF00BF46F62D60288030
:105AA0009CE700BFFDF75EFC00BF97E730020020D7
:105AB000C801002070B51546066846B90D65002678
:105AC0004E618E61C86101600126868033E0046802
:105AD00002682B4624E0166D9E421DD396696EB96E
